:100000000C9434000C943E000C943E000C943E0082
:100010000C943E000C943E000C943E000C943E0068
:100020000C943E000C943E000C943E000C943E0058
:100030000C943E000C943E000C943E000C943E0048
:100040000C943E000C943E000C943E000C943E0038
:100050000C943E000C943E000C943E000C943E0028
:100060000C943E000C943E0011241FBECFEFD8E04C
:10007000DEBFCDBF0E9444000C945D000C940000D4
:1000800083E084B915B808950E94400091E082E0B1
:1000900095B92FEF33EC49E0215030404040E1F773
:1000A00000C0000085B92FEF35EA4EE02150304006
:0E00B0004040E1F700C00000EBCFF894FFCF16
:00000001FF
