:100000000C9434000C943E000C943E000C943E0082
:100010000C943E000C943E000C943E000C943E0068
:100020000C943E000C943E000C943E000C9469002D
:100030000C943E000C943E000C943E000C943E0048
:100040000C943E000C943E000C943E000C943E0038
:100050000C943E000C943E000C943E000C943E0028
:100060000C943E000C943E0011241FBECFEFD8E04C
:10007000DEBFCDBF0E947B000C9483000C94000077
:1000800084B1836084B90895E1E8F0E080818860FC
:1000900080838081846080838081816080838AE620
:1000A00098E19093890080938800EFE6F0E08081EA
:1000B00082608083089595B181E0892785B92FEF0B
:1000C00083EC99E0215080409040E1F700C00000AF
:1000D00008951F920F920FB60F9211248F939F9342
:1000E00095B182E0892785B99F918F910F900FBEBE
:1000F0000F901F9018950E9440000E944400789431
:0A0100000E945B00FDCFF894FFCFD2
:00000001FF
