:100000000C94A0010C94BD010C94BD010C94BD0195
:100010000C94BD010C94BD010C94BD010C94BD0168
:100020000C94BD010C94BD010C94BD010C941802FC
:100030000C94BD010C94BD010C94BD010C94BD0148
:100040000C94BD010C94BD010C94BD010C94BD0138
:100050000C94BD010C94BD010C94BD010C94BD0128
:100060000C94BD010C94BD010000000000000000D4
:100070000000000000000000000000000000000080
:100080000000000000000000000000000000000070
:100090000000000000000000000000000000000060
:1000A0000000000000000000000000000000000050
:1000B0000000000000000000000000000000000040
:1000C0000000000000000000000000000000000030
:1000D0000000000000000000000000000000000020
:1000E0000000000000000000000000000000000010
:1000F0000000000000000000000000000000000000
:1001000000000000000000000000000000000000EF
:1001100000000000000000000000000000000000DF
:1001200000000000000000000000000000000000CF
:1001300000000000000000000000000000000000BF
:1001400000000000000000000000000000000000AF
:10015000000000000000000000000000000000009F
:10016000000000000000000000000000000000008F
:100170001FBF1F0000000000000000000000000082
:1001800066FFFF66FFFF6600000000000000000041
:10019000000000000000000000000000000000005F
:1001A000000000000000000000000000000000004F
:1001B000000000000000000000000000000000003F
:1001C000000000000000000000000000000000002F
:1001D0000000000000000000C0C00000000000009F
:1001E00000000000000000007EC3B19DC37E00003F
:1001F000000000FFFF00000000E291918989860065
:1002000000C3DBDBDBDBFF00001F1F1818FFFF0054
:10021000CFCFC9C9C9F900007EDB8B8BDB70000032
:1002200083C36131190D070000FFFF9999FFFF009B
:100230000E1B31311BFFFE000000666666000000E9
:100240000C3E7EFCFC7E3E0C000000000000000026
:10025000000000000000000000000000000000009E
:10026000000000000000000000000000000000008E
:10027000FCFE131313FEFC00FFFF898FFE700000CD
:100280007EFFC3C3C3C3C300FFFFC3C3E67E180022
:10029000FFFFDBDBDBC30000FFFF1B1B03030000D2
:1002A000FFFFC3C3DBDBFB00FFFF181818FFFF00D5
:1002B00000C3C3FFC3C30000E0E3C3FF7F03030029
:1002C00000FFFF1C36E3C1000000FFFFC0C0C000FC
:1002D000FFFF060C06FFFF00FFFF061C30FFFF00BC
:1002E0003C7EC3C3C37E3C0000FFFF1111110E0012
:1002F0003C7EC3D3E37E9C00FEFF11317BCE8000A9
:10030000DFDFD9D9F9F90000000303FFFF03030081
:10031000FFFFC0C0C0FFFF00071F78E0781F070085
:100320007FFFC07CC0FF7F00C16336183663C10009
:1003300083CEFC380C070300C3E3F3DBDBCFC7003D
:1003400011241FBECFEFD8E0DEBFCDBF11E0A0E08B
:10035000B1E0EAE0F7E002C005900D92AC31B107E0
:10036000D9F721E0ACE1B1E001C01D92A636B20799
:10037000E1F70E9466030C9483030C94000095B18E
:1003800081E0892785B92FEF85EA9EE021508040E2
:100390009040E1F700C0000008951092C50087E684
:1003A0008093C40088E08093C10086E08093C200FF
:1003B00008959091C00095FFFCCF8093C6000895EA
:1003C00088E70E94D9012FEF81EE94E02150804010
:1003D0009040E1F700C000000895209A0895E1E8F8
:1003E000F0E0808188608083808184608083808168
:1003F000816080838AE196E09093890080938800F1
:10040000EFE6F0E0808182608083089580911C0196
:1004100090911D018230910534F4019690931D0155
:1004200080931C01089510921D0110921C010895E3
:100430001F920F920FB60F9211240F920FB6F894DD
:100440000F921F9211242F923F924F925F926F92C0
:100450007F928F929F92AF92BF92CF92DF92EF9254
:10046000FF920F931F932F933F934F935F936F933D
:100470007F938F939F93AF93BF93CF93DF93EF932C
:10048000FF93FF91EF91DF91CF91BF91AF919F913A
:100490008F917F916F915F914F913F912F911F911C
:1004A0000F91FF90EF90DF90CF90BF90AF909F9013
:1004B0008F907F906F905F904F903F902F901F9004
:1004C0000F900F900FBE0F901F901895FC0180E0C9
:1004D00095E09183808380E096E09783868380E037
:1004E00097E0958784878FEB91E09383828380EEFA
:1004F00091E09187808780E193E0918B808B0895D4
:1005000084B18C6284B983E58CBD08958EBD0DB431
:1005100007FEFDCF8EB508950F931F93CF93DF9302
:10052000FC012081F8E02F0290011124FC0151818F
:100530005A3029F0F8E05F02C001112402C080E0C7
:1005400090E0DB01A25EBE4F77FD1EC0EEE1F1E060
:10055000ED01EA17FB0711F01192FBCF261B370BB9
:100560006830710551F0F901E60FF71FE859FF4FA8
:10057000E491E9936F5F7F4FF3CFAEE1B1E026E204
:1005800031E0C6E2D1E029C0CEE1D1E08A1B9B0B6D
:100590005A3051F0FC01EA0FFB1FE859FF4FE4917C
:1005A0001896EC93189703C018961C9218971196FA
:1005B000CA17DB0769F788EF9FEF261B370B285F09
:1005C0003F4F86179707CCF6F901E80FF91FE85956
:1005D000FF4FE491E9930196F4CF6D91062E000C44
:1005E000770BF90187E090E08B01082E02C015958A
:1005F00007950A94E2F700FF02C0408301C0108211
:10060000019738968F3F5FEF950771F72F5F3F4F48
:10061000CA17DB0711F7DF91CF911F910F91089552
:100620000E948002C0E0D0E010E0112309F449C02C
:10063000113029F0123029F4C0E0D1E002C0C0E14D
:10064000D1E0EE24EA94FE2C40EEB701CE010E94E8
:100650008C022A988FE99FE00197F1F700C0000013
:1006600086E20E94860286E2C82E81E0D82EF6013C
:1006700081916F010E948602F6E6CF16F1E0DF0657
:10068000B1F78FE99FE00197F1F700C000002A9AC7
:100690009FEFE1EEF4E09150E040F040E1F700C060
:1006A000000021E0E21AF10887EFE8168FEFF80664
:1006B00059F68981811108C01F5F133009F0B5CF49
:1006C00010E0C3E1D1E0BDCF2196BBCFCF93DF9344
:1006D000CDB7DEB72C970FB6F894DEBF0FBECDBFF7
:1006E000CE0101960E9466020E94CD010E94ED019A
:1006F0000E94EF010E9480020E94BF010E94E0015F
:0A0700000E941003F9CFF894FFCF18
:10070A00504F4C5954454348204C494C4C452100C4
:0C071A00544F0057454C434F4D45000024
:00000001FF
